:020000040800F2
:1000000000280020F10C0008290C00082F0C000823
:10001000350C00083B0C0008410C000800000000F3
:10002000000000000000000000000000470C000875
:10003000530C0008000000005F0C00086B0C000867
:10004000390D0008390D0008390D0008390D000878
:10005000390D0008390D0008390D0008390D000868
:10006000390D0008390D0008390D0008390D000858
:10007000390D0008390D0008390D0008390D000848
:10008000390D0008390D0008390D0008390D000838
:10009000390D0008390D0008390D0008390D000828
:1000A000390D0008390D0008390D0008390D000818
:1000B000390D0008390D000800000000390D000856
:1000C000390D00080000000000000000390D000894
:1000D00000000000390D0008390D00080000000084
:1000E000390D0008390D0008390D00080000000026
:1000F0000000000000000000000000000000000000
:0C01000000000000000000005FF808F1A3
:10010C0010B5054C237833B9044B13B10448AFF345
:10011C0000800123237010BD7C0000200000000033
:10012C008031000808B5034B1BB103490348AFF3FA
:10013C00008008BD00000000800000208031000815
:10014C0080B500AF01220221074801F0DBFD012040
:10015C0000F050FE00220221034801F0D3FD0120E3
:10016C0000F048FE00BF80BD000C014080B582B09D
:10017C0000AF0346FB71FB7903F00103DBB21A46B7
:10018C000421154801F0BEFDFB795B08DBB203F0DE
:10019C000103DBB21A4608210F4801F0B3FDFB79CD
:1001AC009B08DBB203F00103DBB21A4610210A48AC
:1001BC0001F0A8FDFB79DB08DBB203F00103DBB235
:1001CC001A462021044801F09DFDFFF7B9FF00BF3E
:1001DC000837BD4680BD00BF000C014080B582B021
:1001EC0000AF0346FB71002201210A4801F08AFD91
:1001FC00FB791B09DBB21846FFF7B8FFFB7903F05C
:10020C000F03DBB21846FFF7B1FF00BF0837BD463E
:10021C0080BD00BF000C014080B582B000AF03462A
:10022C00FB71012201210A4801F06CFDFB791B09CD
:10023C00DBB21846FFF79AFFFB7903F00F03DBB232
:10024C001846FFF793FF00BF0837BD4680BD00BFBF
:10025C00000C014080B500AF322000F0CBFD022035
:10026C00FFF7BCFF2820FFF7B9FF0C20FFF7B6FF04
:10027C000620FFF7B3FF0120FFF7B0FF022000F0CC
:10028C00B9FD00BF80BD80B582B000AF03460A4601
:10029C00FB711346BB71FB79002B01D1802200E06E
:1002AC00C022BB791344DBB21846FFF797FF00BF9F
:1002BC000837BD4680BD80B582B000AF786006E0DF
:1002CC007B685A1C7A601B781846FFF7A5FF7B6881
:1002DC001B78002BF4D100BF00BF0837BD4680BD92
:1002EC0080B584B000AF78600B46FB700023FB73C5
:1002FC0009E07B685A1C7A601B781846FFF78CFF64
:10030C00FB7B0133FB737B681B78002B0AD0FA7BD9
:10031C00FB789A42EDD305E02020FFF77DFFFB7BB5
:10032C000133FB73FA7BFB789A42F5D300BF00BF15
:10033C001037BD4680BD80B500AF0120FFF74EFFE2
:10034C00022000F057FD00BF80BD000080B586B0D4
:10035C0000AF786007F1080300221A605A609A60B7
:10036C007B68BB600123FB6007233B6107F108033B
:10037C0019460B4801F026F8094800F037FE6421B5
:10038C00074800F00DFF064801F010F80346FB8209
:10039C00034800F0D9FEFB8A18461837BD4680BDCD
:1003AC00C400002080B483B000AF0346FB80FB8800
:1003BC00092B01D8012306E0FB88B3F57F6F01D927
:1003CC00022300E0002318460C37BD4680BC704762
:1003DC0080B483B000AF78607B68B3F5967F01DDA5
:1003EC00032306E07B6813F10A0F01DA042300E013
:1003FC00002318460C37BD4680BC704780B485B0CE
:10040C0000AF7860224B1B781A46224B53F82230EF
:10041C00FB601F4B1B7819461E4A7B6842F8213043
:10042C001B4B1B785A1C1C4B83FB02135910D31704
:10043C00C91A0B469B000B44D11ACAB2144B1A7042
:10044C00164B1B78002B0ED1154B1B780133DAB2EF
:10045C00134B1A70124B1B78042B02D90F4B012231
:10046C001A7000230FE07A68FB68D31ABB60BB6874
:10047C001E2B01DD052306E0BB6813F1320F01DAF8
:10048C00062300E0002318461437BD4680BC704795
:10049C00B00000209C00002067666666B10000205A
:1004AC00B500002080B584B000AF03463960FB80F6
:1004BC0013467B71FB881846FFF774FF0346FB73EA
:1004CC00FB7B002B01D0FB7B14E03868FFF780FF2F
:1004DC000346FB73FB7B002B01D0FB7B0AE03868E7
:1004EC00FFF78CFF0346FB73FB7B002B01D0FB7BE0
:1004FC0000E0002318461037BD4680BD80B483B0A1
:10050C0000AF0346FB71FB79013B062B1ED801A201
:10051C0052F823F04D050008510500083D05000870
:10052C004105000845050008490500085505000867
:10053C00094B0CE0094B0AE0094B08E0094B06E0BB
:10054C00094B04E0094B02E0094B00E0094B18464B
:10055C000C37BD4680BC704798310008AC310008A0
:10056C00C0310008D4310008E8310008FC31000823
:10057C00103200082432000880B582B000AF034668
:10058C00FB71002201210D4801F0BCFB002202216D
:10059C000A4801F0B7FB0A4AFB791370094B012298
:1005AC001A70094B00221A7001220421034801F031
:1005BC00A9FB00BF0837BD4680BD00BF001001403D
:1005CC00B2000020B3000020B400002080B483B03F
:1005DC0000AF786039603B68023B7A689A4203DA74
:1005EC00084B01221A7007E03B6802337A689A4282
:1005FC0002DD044B00221A7000BF0C37BD4680BCD4
:10060C00704700BFB400002080B588B000AF7860A0
:10061C001B4B1B78002B0CBF01230023DBB21A46AB
:10062C00174B1A70164B1B78002B14BF0123002399
:10063C00DBB21A460421134801F064FB00210020B0
:10064C00FFF721FE07F10C037A680F49184602F0F8
:10065C0057F907F10C031846FFF72DFE0021012076
:10066C00FFF711FE094B1B781846FFF747FF0346AF
:10067C001846FFF720FE00BF2037BD4680BD00BFE7
:10068C00B60000200010014038320008B2000020F3
:10069C0080B58CB002AF0346B9607A60FB737B689F
:1006AC00212B02DC2D4B7B6207E07B68422B02DCAA
:1006BC002B4B7B6201E02B4B7B622B4B1B68BA688C
:1006CC009A4204D1294B1B687A689A4218D00021AF
:1006DC000020FFF7D8FD07F110007B6A0093BB6880
:1006EC00234A112102F0D8F807F110031021184603
:1006FC00FFF7F6FD1C4ABB6813601C4A7B6813604D
:10070C001C4B1B78FA7B9A4223D000210120FFF767
:10071C00BAFDFB7B022B0AD0022B12DC002B0BD078
:10072C00012B0ED110211448FFF7DAFD0EE0102139
:10073C001248FFF7D5FD09E010211148FFF7D0FD55
:10074C0004E010210F48FFF7CBFD00BF094AFB7BEB
:10075C00137000BF2837BD4680BD00BF4C32000867
:10076C005032000854320008040000200800002019
:10077C00583200080000002068320008703200086F
:10078C00783200088032000880B58CB000AF00F0E1
:10079C00CFFA00F00BF900F06BF900F04BF9794B44
:1007AC009B69784A43F001039361764B9B6903F094
:1007BC0001033B603B68744B5B68BB62BB6A23F014
:1007CC00E063BB62BB6A43F00073BB626E4ABB6AF8
:1007DC0053606E4800F08AFFFFF73CFD00210020BB
:1007EC00FFF751FD6A48FFF766FD00210120FFF776
:1007FC004AFD6848FFF75FFD40F2DC5000F0FAFA62
:10080C00FFF799FD0020FFF7A1FD0346FB840120B3
:10081C00FFF79CFD0346BB840220FFF797FD0346C0
:10082C007B845D4ABB8C1380FB8C4FF4A57202FB5E
:10083C0003F35A4A82FB03121A44D212DB17D31A5F
:10084C00FB61BA8C13461B019B1A9B00534A82FB1B
:10085C0003121A44D212DB17D31A1433BB617B8CEC
:10086C00C82B8CBF01230023DBB2FB75BB69502B5B
:10087C0003DD04214A4801F05DFA4A4B1A78FB8CDF
:10088C00F9691846FFF70EFE0346BB75BB7D002BBE
:10089C0003D0BB7D1846FFF76FFE434B1B78002B34
:1008AC0010D0032387F82F30002201213C4801F09F
:1008BC0029FA002202213A4801F024FAF869FFF7DC
:1008CC00A3FE5BE0FB7D002B3CD0012202213448CF
:1008DC0001F018FAB969F869FFF778FE314B1B780B
:1008EC00002B14BF01230023DBB21A4601212C4834
:1008FC0001F008FA2B4B1B78002B08D0012387F84A
:10090C002F3000220421264801F0FCF912E00223CA
:10091C0087F82F30BB690533FA699A4205DD01224D
:10092C0004211F4801F0EEF904E0002204211C48C8
:10093C0001F0E8F997F82F30BA69F9691846FFF712
:10094C00A7FE1BE0002387F82F3000220221144859
:10095C0001F0D8F900220121114801F0D3F900224D
:10096C0004210F4801F0CEF90E4B00221A7097F8B3
:10097C002F30BA69F9691846FFF78AFEC82000F0D3
:10098C0039FA3FE70010024000000140C40000208B
:10099C00883200089C3200089800002081000880F2
:1009AC0000100140B4000020B300002080B594B0CA
:1009BC0000AF07F1280328220021184601F064FF3C
:1009CC0007F1140300221A605A609A60DA601A6107
:1009DC003B1D00221A605A609A60DA600A23BB62DF
:1009EC000123BB631023FB6301233B6400237B6463
:1009FC0007F12803184601F0B7F90F237B61002398
:100A0C00BB610023FB6100233B6200237B6207F187
:100A1C0014030021184601F027FC02237B600023FD
:100A2C00FB603B1D184601F099FD00BF5037BD46D9
:100A3C0080BD000080B500AF0B4B0C4A1A600A4B0E
:100A4C0000229A60084B00221A73074B4FF4602265
:100A5C00DA61054B00225A60034B01221A610248ED
:100A6C0000F0ECF900BF80BDC40000200024014060
:100A7C0080B588B000AF07F1100300221A605A60ED
:100A8C009A60DA602A4B9B69294A43F0040393610C
:100A9C00274B9B6903F00403FB60FB68244B9B69A9
:100AAC00234A43F008039361214B9B6903F008032D
:100ABC00BB60BB681E4B9B691D4A43F010039361DE
:100ACC001B4B9B6903F010037B607B6807233B6126
:100ADC0003237B610023BB6107F110031946154802
:100AEC0000F096FF00223F21134801F00BF9002281
:100AFC000721124801F006F93F233B6101237B617A
:100B0C000223FB6107F1100319460B4800F080FF2C
:100B1C0007233B6101237B610223FB6107F1100377
:100B2C001946064800F074FF00BF2037BD4680BD53
:100B3C000010024000080140000C01400010014070
:100B4C0080B485B000AF154B9B69144A43F0010388
:100B5C009361124B9B6903F00103BB60BB680F4BA5
:100B6C00DB690E4A43F08053D3610C4BDB6903F015
:100B7C0080537B607B680A4B5B68FB60FB6823F0EF
:100B8C00E063FB60FB6843F00073FB60044AFB68A6
:100B9C00536000BF1437BD4680BC70470010024044
:100BAC000000014080B588B000AF786007F11003F9
:100BBC0000221A605A609A60DA607B681B68144ADB
:100BCC00934221D1134B9B69124A43F400739361F6
:100BDC00104B9B6903F40073FB60FB680D4B9B6926
:100BEC000C4A43F0040393610A4B9B6903F0040322
:100BFC00BB60BB6807233B6103237B6107F11003D8
:100C0C001946054800F004FF00BF2037BD4680BDE3
:100C1C0000240140001002400008014080B400AFE5
:100C2C00FEE780B400AFFEE780B400AFFEE780B40F
:100C3C0000AFFEE780B400AFFEE780B400AF00BFAA
:100C4C00BD4680BC704780B400AF00BFBD4680BCC1
:100C5C00704780B400AF00BFBD4680BC704780B504
:100C6C0000AF00F0ABF800BF80BD000080B586B0CF
:100C7C0000AF7860144A154BD31A7B617B693B61DA
:100C8C00134B1B68002B02D1114B124A1A60104BEC
:100C9C001A687B6813443A699A4207D201F0CAFD7C
:100CAC0003460C221A604FF0FF3309E0084B1B6817
:100CBC00FB60074B1A687B681344054A1360FB689A
:100CCC0018461837BD4680BD0028002000040000DF
:100CDC00B80000200801002080B400AF00BFBD4662
:100CEC0080BC7047FFF7F8FF0B480C490C4A0023F7
:100CFC0002E0D458C4500433C4188C42F9D3094AC6
:100D0C00094C002301E013600432A242FBD301F032
:100D1C0097FDFFF739FD7047000000207C00002094
:100D2C002C3300087C00002008010020FEE70000A6
:100D3C0080B500AF084B1B68074A43F010031360E3
:100D4C00032000F031FE0F2000F008F8FFF7F8FE4A
:100D5C000023184680BD00BF0020024080B582B041
:100D6C0000AF7860124B1A68124B1B7819464FF47F
:100D7C007A73B3FBF1F3B2FBF3F3184600F03BFECE
:100D8C000346002B01D001230EE07B680F2B0AD801
:100D9C00002279684FF0FF3000F011FE064A7B68A4
:100DAC001360002300E0012318460837BD4680BDC0
:100DBC000C000020140000201000002080B400AFB4
:100DCC00054B1B781A46054B1B681344034A1360EA
:100DDC0000BFBD4680BC704714000020F40000200A
:100DEC0080B400AF024B1B681846BD4680BC7047F0
:100DFC00F400002080B584B000AF7860FFF7F0FFFE
:100E0C00B8607B68FB60FB68B3F1FF3F05D00A4B11
:100E1C001B781A46FB681344FB6000BFFFF7E0FF2A
:100E2C000246BB68D31AFA689A42F7D800BF00BFD3
:100E3C001037BD4680BD00BF1400002080B586B0C1
:100E4C0000AF78600023FB7500233B610023BB607F
:100E5C000023FB607B68002B01D10123BEE07B6883
:100E6C009B68002B7B689B6A002B09D17B68002256
:100E7C00DA627B68002283F824207868FFF792FE00
:100E8C00786800F0F1FB0346FB757B689B6A03F006
:100E9C001003002B40F09980FB7D002B40F09580D7
:100EAC007B689B6A23F4885323F0020343F002020D
:100EBC007B689A627B685A687B68DB691A437B683B
:100ECC001B7B5B001343BA681343BB607B689B6856
:100EDC00B3F5807F03D07B689B68012B02D14FF464
:100EEC00807300E000233A6913433B617B681B7DF0
:100EFC00012B19D17B681B7B002B09D17B689B696B
:100F0C00013B5A033B69134343F400633B610BE021
:100F1C007B689B6A43F020027B689A627B68DB6A81
:100F2C0043F001027B68DA627B681B685B6823F420
:100F3C0069417B681B683A690A435A607B681B6885
:100F4C009A68284B13407A681268B9680B4393600F
:100F5C007B689B68B3F5807F03D07B689B68012B13
:100F6C0004D17B681B69013B1B05FB607B681B681C
:100F7C00DB6A23F470017B681B68FA680A43DA6247
:100F8C007B681B689A68184B1340BA689A420BD15D
:100F9C007B680022DA627B689B6A23F0030343F0D0
:100FAC0001027B689A6218E07B689B6A23F012034B
:100FBC0043F010027B689A627B68DB6A43F00102A3
:100FCC007B68DA620123FB7507E07B689B6A43F060
:100FDC0010027B689A620123FB75FB7D184618375B
:100FEC00BD4680BDFDF7E1FFFE0E1FFF80B584B04E
:100FFC0000AF78600023FB737B6893F82430012BDF
:10100C0001D1022398E07B68012283F824207868C0
:10101C0000F0D0FA0346FB73FB7B002B40F087807B
:10102C007B689B6A23F4407323F0010343F48072C2
:10103C007B689A627B681B68414A934205D1414B9D
:10104C005B6803F47023002B15D17B689B6A23F437
:10105C0080127B689A627B681B685B6803F4806310
:10106C00002B26D07B689B6A23F4405343F48052B8
:10107C007B689A621DE07B689B6A43F480127B68F4
:10108C009A627B681B682F4A934204D07B681B686A
:10109C002B4A93420DD12B4B5B6803F48063002BDE
:1010AC0007D07B689B6A23F4405343F480527B68DF
:1010BC009A627B689B6A03F48053002B06D07B6892
:1010CC00DB6A23F006027B68DA6202E07B680022AE
:1010DC00DA627B68002283F824207B681B686FF03F
:1010EC0002021A607B681B689B6803F46023B3F5EB
:1010FC00602F13D17B681B68114A934205D1114BA9
:10110C005B6803F47023002B08D17B681B689A681A
:10111C007B681B6842F4A0029A600CE07B681B6839
:10112C009A687B681B6842F480129A6003E07B68C3
:10113C00002283F82420FB7B18461037BD4680BD67
:10114C00002801400024014080B584B000AF7860D5
:10115C000023FB737B6893F82430012B01D102230D
:10116C001AE07B68012283F82420786800F07CFA6E
:10117C000346FB73FB7B002B09D17B689B6A23F432
:10118C00885323F0010343F001027B689A627B6869
:10119C00002283F82420FB7B18461037BD4680BD07
:1011AC0090B587B000AF7860396000237B61002375
:1011BC00FB6000233B61FFF713FE78617B681B68C3
:1011CC009B6803F48073002B0BD07B689B6A43F005
:1011DC0020027B689A627B68002283F8242001231A
:1011EC00D3E07B681B685B6803F48073002B31D100
:1011FC007B681B68DB6A03F47003002B2AD121E0A7
:10120C003B68B3F1FF3F1DD03B68002B07D0FFF7C5
:10121C00E7FD02467B69D31A3A689A4212D27B6880
:10122C001B681B6803F00203002B0BD17B689B6AC5
:10123C0043F004027B689A627B68002283F82420C6
:10124C000323A2E07B681B681B6803F00203002BDE
:10125C00D6D070E04F4B1C68022001F035FA0346E3
:10126C00B4FBF3F27B681B6819694B4B0B40002BEA
:10127C0018D17B681B68D968484B0B40002B11D1E7
:10128C007B681B681969464B0B40002B08D17B68A7
:10129C001B68D968434B0B40002B01D1142320E071
:1012AC0029231EE07B681B6819693D4B0B40002B02
:1012BC0006D17B681B68D9683A4B0B40002B0DD0CC
:1012CC007B681B681969384B0B40002B08D17B6875
:1012DC001B68D968344B0B40002B01D1542300E020
:1012EC00FC2302FB03F33B6121E03B68B3F1FF3FBE
:1012FC001AD03B68002B07D0FFF772FD02467B69C2
:10130C00D31A3A689A420FD2FB683A699A420BD9BF
:10131C007B689B6A43F004027B689A627B680022BC
:10132C0083F82420032330E0FB680133FB60FB6867
:10133C003A699A42D9D87B681B686FF012021A601E
:10134C007B689B6A43F400727B689A627B681B68BB
:10135C009B6803F46023B3F5602F15D17B681B7B6E
:10136C00002B11D17B689B6A23F480727B689A6294
:10137C007B689B6A03F48053002B05D17B689B6AC6
:10138C0043F001027B689A62002318461C37BD4665
:10139C0090BD00BF0C0000202449922424499200E7
:1013AC0092244912922449004992240080B483B0BB
:1013BC0000AF78607B681B68DB6C18460C37BD4649
:1013CC0080BC704780B485B000AF78603960002372
:1013DC00FB730023BB607B6893F82430012B01D195
:1013EC000223DCE07B68012283F824203B685B68E5
:1013FC00062B1CD87B681B68596B3B685A681346D4
:10140C009B001344053B1F2202FA03F3DB431940F4
:10141C003B6818683B685A6813469B001344053BAD
:10142C0000FA03F27B681B680A435A633CE03B6892
:10143C005B680C2B1CD87B681B68196B3B685A6863
:10144C0013469B001344233B1F2202FA03F3DB4396
:10145C0019403B6818683B685A6813469B00134454
:10146C00233B00FA03F27B681B680A431A631BE0F8
:10147C007B681B68D96A3B685A6813469B00134407
:10148C00413B1F2202FA03F3DB4319403B68186807
:10149C003B685A6813469B001344413B00FA03F225
:1014AC007B681B680A43DA623B681B68092B1CD9F2
:1014BC007B681B68D9683B681A6813465B00134449
:1014CC001E3B072202FA03F3DB4319403B68986882
:1014DC003B681A6813465B0013441E3B00FA03F288
:1014EC007B681B680A43DA6019E07B681B68196922
:1014FC003B681A6813465B001344072202FA03F395
:10150C00DB4319403B6898683B681A6813465B00DC
:10151C00134400FA03F27B681B680A431A613B68A8
:10152C001B68102B03D03B681B68112B32D17B68D6
:10153C001B681D4A934225D17B681B689B6803F48A
:10154C000003002B26D17B681B689A687B681B689C
:10155C0042F400029A603B681B68102B1AD1134BA3
:10156C001B68134AA2FB03239A0C13469B001344DB
:10157C005B00BB6002E0BB68013BBB60BB68002B3F
:10158C00F9D107E07B689B6A43F020027B689A6282
:10159C000123FB737B68002283F82420FB7B184615
:1015AC001437BD4680BC7047002401400C0000205D
:1015BC0083DE1B4380B584B000AF78600023FB60F2
:1015CC000023BB607B681B689B6803F00103012B45
:1015DC0040D07B681B689A687B681B6842F00102EC
:1015EC009A601F4B1B681F4AA2FB03239B0CBB601A
:1015FC0002E0BB68013BBB60BB68002BF9D1FFF775
:10160C00EFFBF8601FE0FFF7EBFB0246FB68D31A19
:10161C00022B18D97B681B689B6803F00103012B14
:10162C0011D07B689B6A43F010027B689A627B68DE
:10163C00DB6A43F001027B68DA627B68002283F884
:10164C002420012307E07B681B689B6803F00103DF
:10165C00012BD8D1002318461037BD4680BD00BFE2
:10166C000C00002083DE1B4380B584B000AF786093
:10167C000023FB607B681B689B6803F00103012B54
:10168C002ED17B681B689A687B681B6822F001026C
:10169C009A60FFF7A5FBF8601BE0FFF7A1FB024681
:1016AC00FB68D31A022B14D97B681B689B6803F068
:1016BC000103012B0DD17B689B6A43F010027B6800
:1016CC009A627B68DB6A43F001027B68DA62012371
:1016DC0007E07B681B689B6803F00103012BDCD0DF
:1016EC00002318461037BD4680BD000090B587B06A
:1016FC0000AF78600023FB750023FB607B6893F8D8
:10170C002430012B01D1022397E07B68012283F85E
:10171C0024207868FFF7A8FF0346FB757868FFF76D
:10172C0049FF0346FB75FB7D002B40F081807B68F5
:10173C009B6A23F4885323F0020343F002027B6874
:10174C009A62404B1C68022000F0BEFF0346B4FBBB
:10175C00F3F35B00FB6002E0FB68013BFB60FB68A2
:10176C00002BF9D17B681B689A687B681B6842F078
:10177C0008029A60FFF734FB38611BE0FFF730FB7F
:10178C0002463B69D31A0A2B14D97B681B689B68E9
:10179C0003F00803002B0DD07B689B6A23F0120327
:1017AC0043F010027B689A627B68002283F8242045
:1017BC00012342E07B681B689B6803F00803002B45
:1017CC00DCD17B681B689A687B681B6842F004025A
:1017DC009A60FFF705FB38611BE0FFF701FB02463F
:1017EC003B69D31A0A2B14D97B681B689B6803F0DE
:1017FC000403002B0DD07B689B6A23F0120343F08B
:10180C0010027B689A627B68002283F824200123F3
:10181C0013E07B681B689B6803F00403002BDCD18E
:10182C007B689B6A23F0030343F001027B689A6296
:10183C007B68002283F82420FB7D18461C37BD46AC
:10184C0090BD00BF0C00002080B485B000AF786064
:10185C007B6803F00703FB600C4BDB68BB60BA686A
:10186C004FF6FF031340BB60FB681A02BB681343BF
:10187C0043F0BF6343F40033BB60044ABB68D360DE
:10188C0000BF1437BD4680BC704700BF00ED00E0C0
:10189C0080B400AF044BDB681B0A03F00703184647
:1018AC00BD4680BC704700BF00ED00E080B483B043
:1018BC0000AF03463960FB7197F90730002B0ADB48
:1018CC003B68DAB20C4997F907301201D2B20B44DB
:1018DC0083F800230AE03B68DAB20849FB7903F08D
:1018EC000F03043B1201D2B20B441A7600BF0C3723
:1018FC00BD4680BC704700BF00E100E000ED00E099
:10190C0080B489B000AFF860B9607A60FB6803F00E
:10191C000703FB61FB69C3F10703042B28BF0423F6
:10192C00BB61FB690433062B02D9FB69033B00E066
:10193C0000237B614FF0FF32BB6902FA03F3DA43F9
:10194C00BB681A407B699A404FF0FF317B6901FA02
:10195C0003F3D9437B680B40134318462437BD4629
:10196C0080BC704780B582B000AF78607B68013B6B
:10197C00B3F1807F01D301230FE00A4A7B68013B5E
:10198C0053600F214FF0FF30FFF790FF054B002203
:10199C009A60044B07221A60002318460837BD468C
:1019AC0080BD00BF10E000E080B582B000AF786071
:1019BC007868FFF749FF00BF0837BD4680BD80B58A
:1019CC0086B000AF0346B9607A60FB7300237B617D
:1019DC00FFF75EFF78617A68B9687869FFF790FF66
:1019EC00024697F90F3011461846FFF75FFF00BF0C
:1019FC001837BD4680BD80B582B000AF786078687E
:101A0C00FFF7B0FF034618460837BD4680BD0000FF
:101A1C0080B48BB000AF7860396000237B62002308
:101A2C003B6248E101227B6A02FA03F3FB613B68EB
:101A3C001B68FA691340BB61BA69FB699A4240F0B2
:101A4C0037813B685B68A34A93425ED0A14A9342BC
:101A5C0075D8A14A934258D09F4A93426FD89F4A57
:101A6C00934252D09D4A934269D89D4A93424CD09E
:101A7C009B4A934263D89B4A934246D0994A9342DD
:101A8C005DD8122B2AD8122B59D801A252F823F068
:101A9C00171B0008F11A0008031B0008451B00085F
:101AAC004B1B00084B1B00084B1B00084B1B000872
:101ABC004B1B00084B1B00084B1B00084B1B000862
:101ACC004B1B00084B1B00084B1B00084B1B000852
:101ADC004B1B0008F91A00080D1B0008824A9342A0
:101AEC0013D02CE03B68DB683B6229E03B68DB6889
:101AFC0004333B6224E03B68DB6808333B621FE045
:101B0C003B68DB680C333B621AE03B689B68002B3C
:101B1C0002D104233B6213E03B689B68012B05D187
:101B2C0008233B627B68FA691A6109E008233B626F
:101B3C007B68FA695A6103E000233B6200E000BF56
:101B4C00BB69FF2B01D87B6801E07B6804337B61A8
:101B5C00BB69FF2B02D87B6A9B0002E07B6A083BC7
:101B6C009B003B617B691A680F213B6901FA03F307
:101B7C00DB431A40396A3B6901FA03F31A437B6968
:101B8C001A603B685B6803F08053002B00F0908078
:101B9C00564B9B69554A43F001039361534B9B6928
:101BAC0003F00103BB60BB68514A7B6A9B0802339C
:101BBC0052F82330FB607B6A03F003039B000F2277
:101BCC0002FA03F3DB43FA681340FB607B68494A73
:101BDC0093420DD07B68484A934207D07B68474AB2
:101BEC00934201D1022304E0032302E0012300E02D
:101BFC0000237A6A02F0030292009340FA681343BE
:101C0C00FB603B497B6A9B080233FA6841F823204E
:101C1C003B685B6803F48013002B06D0384B9A6842
:101C2C003749BB6913438B6006E0354B9A68BB6937
:101C3C00DB43334913408B603B685B6803F4001350
:101C4C00002B06D02E4BDA682D49BB691343CB60B1
:101C5C0006E02B4BDA68BB69DB4329491340CB60A8
:101C6C003B685B6803F40033002B06D0244B5A68A6
:101C7C002349BB6913434B6006E0214B5A68BB698F
:101C8C00DB431F4913404B603B685B6803F48033B4
:101C9C00002B06D01A4B1A681949BB6913430B6009
:101CAC0006E0174B1A68BB69DB43154913400B6000
:101CBC007B6A01337B623B681A687B6A22FA03F306
:101CCC00002B7FF4AFAE00BF00BF2C37BD4680BCED
:101CDC00704700BF000032100000311000002210CD
:101CEC000000211000001210000011100010024022
:101CFC000000014000080140000C014000100140B0
:101D0C000004014080B483B000AF78600B467B8048
:101D1C0013467B707B78002B03D07A887B681A6122
:101D2C0003E07B881A047B681A6100BF0C37BD4640
:101D3C0080BC704780B485B000AF78600B467B8068
:101D4C007B68DB68FB607A88FB6813401A04FB68CD
:101D5C00D9437B880B401A437B681A6100BF143748
:101D6C00BD4680BC7047000080B586B000AF78607F
:101D7C007B68002B01D101236CE27B681B6803F0AC
:101D8C000103002B00F08780924B5B6803F00C037F
:101D9C00042B0CD08F4B5B6803F00C03082B12D177
:101DAC008C4B5B6803F48033B3F5803F0BD1894BCC
:101DBC001B6803F40033002B6CD07B685B68002B32
:101DCC0068D1012346E27B685B68B3F5803F06D19E
:101DDC00804B1B687F4A43F4803313602EE07B6892
:101DEC005B68002B0CD17B4B1B687A4A23F4803345
:101DFC001360784B1B68774A23F4802313601DE033
:101E0C007B685B68B3F5A02F0CD1724B1B68714AD1
:101E1C0043F4802313606F4B1B686E4A43F480338A
:101E2C0013600BE06B4B1B686A4A23F4803313601E
:101E3C00684B1B68674A23F4802313607B685B68DC
:101E4C00002B13D0FEF7CCFF386108E0FEF7C8FF7B
:101E5C0002463B69D31A642B01D90323FAE15D4B8B
:101E6C001B6803F40033002BF0D014E0FEF7B8FF2E
:101E7C00386108E0FEF7B4FF02463B69D31A642BC5
:101E8C0001D90323E6E1534B1B6803F40033002B09
:101E9C00F0D100E000BF7B681B6803F00203002B4D
:101EAC0063D04C4B5B6803F00C03002B0BD0494BFD
:101EBC005B6803F00C03082B1CD1464B5B6803F4E6
:101ECC008033002B16D1434B1B6803F00203002B0D
:101EDC0005D07B681B69012B01D00123BAE13D4B76
:101EEC001B6823F0F8027B685B69DB0039491343FC
:101EFC000B603AE07B681B69002B20D0364B01222B
:101F0C001A60FEF76DFF386108E0FEF769FF0246C4
:101F1C003B69D31A022B01D903239BE12D4B1B6880
:101F2C0003F00203002BF0D02A4B1B6823F0F802BD
:101F3C007B685B69DB00274913430B6015E0264B7C
:101F4C0000221A60FEF74CFF386108E0FEF748FFEC
:101F5C0002463B69D31A022B01D903237AE11D4BAC
:101F6C001B6803F00203002BF0D17B681B6803F0A5
:101F7C000803002B3AD07B689B69002B19D0174BB8
:101F8C0001221A60FEF72CFF386108E0FEF728FFEB
:101F9C0002463B69D31A022B01D903235AE10D4B9C
:101FAC005B6A03F00203002BF0D0012000F0B8FABA
:101FBC001CE00A4B00221A60FEF712FF38610FE09A
:101FCC00FEF70EFF02463B69D31A022B08D90323F6
:101FDC0040E100BF00100240000042428004424237
:101FEC009E4B5B6A03F00203002BE9D17B681B68F4
:101FFC0003F00403002B00F0A6800023FB75974B25
:10200C00DB6903F08053002B0DD1944BDB69934AB1
:10201C0043F08053D361914BDB6903F08053BB6079
:10202C00BB680123FB758E4B1B6803F48073002B7C
:10203C0018D18B4B1B688A4A43F480731360FEF7EC
:10204C00CFFE386108E0FEF7CBFE02463B69D31A9F
:10205C00642B01D90323FDE0814B1B6803F48073CF
:10206C00002BF0D07B68DB68012B06D17B4B1B6A05
:10207C007A4A43F0010313622DE07B68DB68002B86
:10208C000CD1764B1B6A754A23F001031362734B18
:10209C001B6A724A23F0040313621CE07B68DB6842
:1020AC00052B0CD16D4B1B6A6C4A43F00403136275
:1020BC006A4B1B6A694A43F0010313620BE0674BDE
:1020CC001B6A664A23F001031362644B1B6A634A62
:1020DC0023F0040313627B68DB68002B15D0FEF73A
:1020EC007FFE38610AE0FEF77BFE02463B69D31A9D
:1020FC0041F28832934201D90323ABE0574B1B6A60
:10210C0003F00203002BEED014E0FEF769FE3861F9
:10211C000AE0FEF765FE02463B69D31A41F28832AB
:10212C00934201D9032395E04C4B1B6A03F0020345
:10213C00002BEED1FB7D012B05D1484BDB69474AC7
:10214C0023F08053D3617B68DB69002B00F0818026
:10215C00424B5B6803F00C03082B61D07B68DB6996
:10216C00022B46D13F4B00221A60FEF739FE386134
:10217C0008E0FEF735FE02463B69D31A022B01D963
:10218C00032367E0354B1B6803F00073002BF0D181
:10219C007B681B6AB3F5803F08D1304B5B6823F436
:1021AC0000327B689B682D4913434B602B4B5B685B
:1021BC0023F474127B68196A7B685B6A0B432749AA
:1021CC0013434B60274B01221A60FEF709FE38615E
:1021DC0008E0FEF705FE02463B69D31A022B01D933
:1021EC00032337E01D4B1B6803F00073002BF0D06A
:1021FC002FE01C4B00221A60FEF7F2FD386108E05C
:10220C00FEF7EEFD02463B69D31A022B01D90323DC
:10221C0020E0124B1B6803F00073002BF0D118E088
:10222C007B68DB69012B01D1012313E00B4B5B684D
:10223C00FB60FB6803F480327B681B6A9A4206D110
:10224C00FB6803F470127B685B6A9A4201D001232D
:10225C0000E0002318461837BD4680BD0010024030
:10226C00007000406000424280B584B000AF7860DE
:10227C0039607B68002B01D10123D0E06A4B1B68CD
:10228C0003F007033A689A4210D9674B1B6823F096
:10229C00070265493B6813430B60634B1B6803F0F3
:1022AC0007033A689A4201D00123B8E07B681B68A7
:1022BC0003F00203002B20D07B681B6803F004039F
:1022CC00002B05D0594B5B68584A43F4E0635360CC
:1022DC007B681B6803F00803002B05D0534B5B682D
:1022EC00524A43F460535360504B5B6823F0F00246
:1022FC007B689B684D4913434B607B681B6803F0FC
:10230C000103002B40D07B685B68012B07D1474B46
:10231C001B6803F40033002B15D101237FE07B688D
:10232C005B68022B07D1414B1B6803F00073002B39
:10233C0009D1012373E03D4B1B6803F00203002B12
:10234C0001D101236BE0394B5B6823F003027B68FE
:10235C005B68364913434B60FEF742FDF8600AE0B8
:10236C00FEF73EFD0246FB68D31A41F288329342D7
:10237C0001D9032353E02D4B5B6803F00C027B68FF
:10238C005B689B009A42EBD1274B1B6803F0070359
:10239C003A689A4210D2244B1B6823F00702224958
:1023AC003B6813430B60204B1B6803F007033A6830
:1023BC009A4201D0012332E07B681B6803F00403CE
:1023CC00002B08D0194B5B6823F4E0627B68DB6858
:1023DC00164913434B607B681B6803F00803002B02
:1023EC0009D0124B5B6823F460527B681B69DB00DD
:1023FC000E4913434B6000F021F802460B4B5B680F
:10240C001B0903F00F030A49CB5C22FA03F3094AB8
:10241C001360094B1B681846FEF7A0FC00231846F6
:10242C001037BD4680BD00BF0020024000100240A6
:10243C00B03200080C0000201000002080B487B0DF
:10244C0000AF0023FB600023BB6000237B610023F3
:10245C007B6000233B611E4B5B68FB60FB6803F0F9
:10246C000C03042B02D0082B03D027E0194B3B6143
:10247C0027E0FB689B0C03F00F03174AD35C7B60CF
:10248C00FB6803F48033002B10D0114B5B685B0CA2
:10249C0003F00103114AD35CBB607B680D4A02FB5D
:1024AC0003F2BB68B2FBF3F37B6104E07B680C4A7C
:1024BC0002FB03F37B617B693B6102E0054B3B61F3
:1024CC0000BF3B6918461C37BD4680BC704700BF37
:1024DC000010024000127A00C8320008D8320008FE
:1024EC0000093D0080B400AF024B1B681846BD4686
:1024FC0080BC70470C00002080B500AFFFF7F2FFE6
:10250C000246054B5B68DB0A03F007030349CB5C0F
:10251C0022FA03F3184680BD00100240C0320008B6
:10252C0080B485B000AF78600A4B1B680A4AA2FBE6
:10253C0003235B0A7A6802FB03F3FB6000BFFB68B2
:10254C005A1EFA60002BF9D100BF00BF1437BD46EC
:10255C0080BC70470C000020D34D621080B586B053
:10256C0000AF786000233B610023FB607B681B6835
:10257C0003F00103002B7DD00023FB754F4BDB696F
:10258C0003F08053002B0DD14C4BDB694B4A43F0CD
:10259C008053D361494BDB6903F08053BB60BB684C
:1025AC000123FB75464B1B6803F48073002B18D179
:1025BC00434B1B68424A43F480731360FEF710FCD4
:1025CC00386108E0FEF70CFC02463B69D31A642B19
:1025DC0001D903236DE03A4B1B6803F48073002B85
:1025EC00F0D0364B1B6A03F44073FB60FB68002B86
:1025FC002ED07B685B6803F44073FA689A4227D04C
:10260C002E4B1B6A23F44073FB602E4B01221A6085
:10261C002C4B00221A60294AFB681362FB6803F0FA
:10262C000103002B14D0FEF7DBFB38610AE0FEF748
:10263C00D7FB02463B69D31A41F28832934201D947
:10264C00032336E01D4B1B6A03F00203002BEED074
:10265C001A4B1B6A23F440727B685B68174913435F
:10266C000B62FB7D012B05D1144BDB69134A23F064
:10267C008053D3617B681B6803F00203002B08D0E6
:10268C000E4B5B6823F440427B689B680B491343F9
:10269C004B607B681B6803F01003002B08D0074BC2
:1026AC005B6823F480027B68DB68044913434B604E
:1026BC00002318461837BD4680BD00BF00100240ED
:1026CC00007000404004424280B588B000AF786092
:1026DC0000237B610023FB6100233B610023FB6033
:1026EC000023BB617B68102B0AD07B68102B00F297
:1026FC008A807B68012B45D07B68022B75D082E0E9
:10270C00464B5B68FB60454B1B6803F08073002BEA
:10271C007BD0FB689B0C03F00F03414AD35C3B61FD
:10272C00FB6803F48033002B15D03C4B5B685B0CCF
:10273C0003F001033B4AD35C7B61FB6803F48033F9
:10274C00002B0DD0384A7B69B2FBF3F23B6902FBDC
:10275C0003F3FB6104E03B69344A02FB03F3FB61C6
:10276C002E4B5B6803F48003B3F5800F02D1FB6939
:10277C00BB614AE0FB695B002D4AA2FB03235B08AB
:10278C00BB6142E0254B1B6AFB60FB6803F44073A2
:10279C00B3F5807F08D1FB6803F00203002B03D054
:1027AC004FF40043BB611FE0FB6803F44073B3F5C7
:1027BC00007F09D1194B5B6A03F00203002B03D095
:1027CC0049F64043BB610FE0FB6803F44073B3F57B
:1027DC00407F1CD1114B1B6803F40033002B16D027
:1027EC004FF22443BB6112E011E0FFF785FE024675
:1027FC000A4B5B689B0B03F0030301335B00B2FBDA
:10280C00F3F3BB6104E000BF02E000BF00E000BFD7
:10281C00BB6918462037BD4680BD00BF0010024082
:10282C00DC320008EC32000800127A0000093D008E
:10283C00ABAAAAAA014B1868704700BF1800002069
:10284C0070B500260C4D0D4C641BA410A64209D18A
:10285C0000F090FC00260A4D0A4C641BA410A64202
:10286C0005D170BD55F8043B98470136EEE755F895
:10287C00043B98470136F2E7243300082433000860
:10288C00243300082833000803460244934200D145
:10289C00704703F8011BF9E70CB430B5174B0C1E4D
:1028AC001D689DB008DA8B234FF0FF302B601DB0F4
:1028BC00BDE8304002B070474FF40273ADF81430ED
:1028CC000CBF234604F1FF33049307934FF6FF73B9
:1028DC0002900690ADF81630284621AB209A02A93A
:1028EC00019300F089F8431CBCBF8B232B60002C98
:1028FC00DDD00022029B1A70D9E700BF180000201F
:10290C000EB46FF0004100B59CB01DAB0290069068
:10291C00079104910848094953F8042B0591006864
:10292C0002A9019300F068F80022029B1A701CB0F7
:10293C005DF804EB03B07047180000200802FFFF9D
:10294C002DE9F0478E6882469E420C4690461F4603
:10295C0038D88A8912F4906F32D02568096901330E
:10296C00A5EB010965694B4405EB450505EBD575F0
:10297C006D109D4238BF1D46530531D5294600F0D8
:10298C0053FB064650B90C234FF0FF30CAF8003009
:10299C00A38943F04003A381BDE8F0874A4621692F
:1029AC0000F0CEFAA38923F4906343F08003A38153
:1029BC0026614E4426603E466561A5EB0905A5607F
:1029CC00BE4200D93E4632464146206800F0C6FA67
:1029DC00A36822689B1B32440020A3602260DBE7C3
:1029EC002A4600F07BFB06460028E1D150462169BF
:1029FC0000F0CEFAC7E700002DE9F04F98468B891E
:102A0C0007461B060D4614469DB00ED50B6963B9DF
:102A1C00402100F009FB2860286120B90C233B60A1
:102A2C004FF0FF30D1E040236B610023099320234A
:102A3C008DF8293030234FF00109CDF80C80DFF8E8
:102A4C00A4818DF82A3023469A4613F8012B0AB13B
:102A5C00252AF9D1BAEB040B0BD05B46224629464A
:102A6C003846FFF76DFF013000F0AA80099A5A44EE
:102A7C0009929AF80030002B00F0A28000234FF04E
:102A8C00FF32CDE905230AF1010A049307938DF86F
:102A9C0053301A935446052214F8011B514800F088
:102AAC0041FA049AD8B9D00644BF20238DF853308C
:102ABC00110744BF2B238DF853309AF800302A2B82
:102ACC0015D0544600204FF00A0C079A214611F8F5
:102ADC00013B303B092B4ED9B0B1079214E0A0EB6F
:102AEC00080309FA03F31343A2460493D2E7039BAA
:102AFC00191D1B680391002BBBBF5B4242F0020205
:102B0C0007930793B8BF049223782E2B0CD16378CC
:102B1C002A2B35D1039B02341A1D1B680392002B00
:102B2C00B8BF4FF0FF330593DFF8C8A0032250461F
:102B3C00217800F0F7F940B14023A0EB0A0003FA2A
:102B4C0000F0049B01340343049314F8011B062288
:102B5C0025488DF8281000F0E5F9002838D0234BD3
:102B6C001BBB039B073323F0070308330393099B19
:102B7C003344099367E70C4601200CFB0232A5E7AE
:102B8C0000234FF00A0C194601340593204610F827
:102B9C00012B303A092A03D9002BC5D00591C3E784
:102BAC00044601230CFB0121F0E703AB00932A46FA
:102BBC0038460F4B04A9AFF30080421C0646D6D111
:102BCC00AB895B063FF52CAF09981DB0BDE8F08FC3
:102BDC0003AB00932A463846054B04A900F07CF859
:102BEC00EBE700BFEE320008F832000800000000EE
:102BFC004D290008F43200082DE9F0471646994695
:102C0C008A680B6907469342B8BF1346336091F844
:102C1C0043200C46DDF820800AB101333360236871
:102C2C00990642BF336802333360256815F00605F8
:102C3C0006D104F1190AE36832689B1AAB4228DC0E
:102C4C0094F84320131E226818BF012392062DD43A
:102C5C004946384604F14302C047013020D023686E
:102C6C00E56803F00603042B18BF002532684FF00B
:102C7C000006A36808BFAD1A226908BF25EAE575EE
:102C8C009342C4BF9B1AED181A34B5421AD10020D6
:102C9C0008E00123524649463846C047013003D16B
:102CAC004FF0FF30BDE8F0870135C4E73020E11864
:102CBC0081F843005A1C94F845102244023382F8E0
:102CCC004310C5E70123224649463846C047013028
:102CDC00E6D00136D9E700002DE9FF470C46277EE8
:102CEC009146782F80469A460C9904F1430207D8F6
:102CFC00622F0AD8002F00F0D980582F00F0A48042
:102D0C0004F1420684F842703AE0A7F16303152BF4
:102D1C00F6D801A050F823F07D2D0008912D000865
:102D2C000D2D00080D2D00080D2D00080D2D00088F
:102D3C00912D00080D2D00080D2D00080D2D0008FB
:102D4C000D2D00089F2E0008C12D0008812E0008B3
:102D5C000D2D00080D2D0008C12E00080D2D0008AA
:102D6C00C12D00080D2D00080D2D0008892E00081E
:102D7C000B6804F142061A1D1B680A6084F8423085
:102D8C000123A4E0256808682E0600F104030AD587
:102D9C0005680B60002D03DA2D236D4284F8433057
:102DAC000A235E4819E015F0400F05680B6018BF48
:102DBC002DB2EFE70B682568181D0860280601D5B1
:102DCC001D6802E06906FBD51D886F2F0CBF082318
:102DDC000A235248002184F843106668002EA8BFCD
:102DEC002168A660A4BF21F0040121600DB9002E5A
:102DFC004DD01646B5FBF3F103FB1157C75D06F832
:102E0C00017D2F46BB420D46F4D9082B0BD123680C
:102E1C00DF0708D5236961689942DEBF302306F8C5
:102E2C00013C06F1FF36921B22614B46214640467F
:102E3C00CDF800A003AAFFF7DFFE01304CD14FF014
:102E4C00FF3004B0BDE8F087344884F845700E6854
:102E5C00236856F8045B1F060E6014D5D90744BFCF
:102E6C0043F0200323601DB9236823F02003236063
:102E7C001023AFE7236843F020032360782328480E
:102E8C0084F84530E3E75E0648BFADB2E6E7164688
:102E9C00BBE70B6826681D1D60690D6035061B6855
:102EAC0001D5186002E07106FBD518800023164688
:102EBC002361BAE70B681A1D0A601E6800213046B0
:102ECC00626800F02FF808B1801B606063682361B2
:102EDC00002384F84330A8E732464946404623692C
:102EEC00D0470130ABD023689B0713D4E068039B19
:102EFC009842B8BF1846A4E70123324649464046DB
:102F0C00D04701309BD00135E36803995B1AAB4283
:102F1C00F2DCEBE7002504F11906F5E7FF320008B7
:102F2C0010330008034610B5C9B202449342184648
:102F3C0001D1002003E0047801338C42F6D110BD9E
:102F4C000A44914200F1FF3300D1704710B511F8DB
:102F5C00014B914203F8014FF9D110BD884210B5D5
:102F6C0001EB020402D98442234607D8431EA14236
:102F7C0008D011F8012B03F8012FF8E701460244A1
:102F8C008A4200D110BD13F8014D02F8014DF7E74C
:102F9C0038B50546002943D051F8043C0C1F002BD2
:102FAC00B8BFE41800F0D0F81E4A1368104633B9C5
:102FBC00636014602846BDE8384000F0CBB8A342EB
:102FCC000AD921686218934201BF1A685B685218CB
:102FDC00226063600460EDE71A465B680BB1A342A4
:102FEC00FAD911685018A0420BD12068014450182E
:102FFC0083421160DED118685B6801441160536034
:10300C00D8E702D90C232B60D4E7206821188B4217
:10301C0001BF19685B680918216063605460C9E7D7
:10302C0038BD00BFBC000020F8B5CD1C25F0030551
:10303C0008350C2D38BF0C25002D064601DBA942A6
:10304C0003D90C2333600020F8BD00F07DF8214932
:10305C000A6814469CB9204F3B6823B92146304678
:10306C0000F062F838602946304600F05DF8431CE9
:10307C0023D10C233046336000F06CF8E3E723686F
:10308C005B1B17D40B2B03D923601C44256004E075
:10309C006368A2420CBF0B605360304600F05AF8D4
:1030AC0004F10B00231D20F00700C21ACCD01B1A10
:1030BC00A350C9E722466468CCE7C41C24F003047F
:1030CC00A042E3D0211A304600F02EF80130DDD1B9
:1030DC00CFE700BFBC000020C0000020F8B50746B9
:1030EC0014460E4621B91146BDE8F840FFF79CBFC7
:1030FC0022B9FFF74DFF25462846F8BD00F030F801
:10310C00A0420FD221463846FFF78EFF0546002815
:10311C00F2D031462246FFF713FF31463846FFF70F
:10312C0037FFE9E73546E7E738B50023054D044698
:10313C0008462B60FDF79AFD431C02D12B6803B1A6
:10314C00236038BDF8000020014800F011B800BF22
:10315C0000010020014800F00CB800BF0001002065
:10316C0051F8043C181F002BBCBF0B58C0187047FB
:10317C0070477047F8B500BFF8BC08BC9E46704756
:0C318C00F8B500BFF8BC08BC9E467047B8
:103198004F564552484541542120202020202020C8
:1031A8000000000054454D5020544F4F204C4F57BD
:1031B800212020200000000054454D502053504944
:1031C8004B452120202020200000000054454D5070
:1031D8002044524F502120202020202000000000B1
:1031E80053454E534F5220444953434F4E4E21208E
:1031F8000000000053454E534F522053484F52543D
:10320800454421200000000053454E534F5220539F
:103218005455434B2120202000000000554E4B4EB2
:103228004F574E204552524F522020200000000098
:10323800212120414C41524D202121202533644336
:10324800000000004C4F00004D44000048490000B9
:10325800543A253364432020533A25730000000074
:1032680048454154494E4700434F4F4C494E47004B
:103278005354414E44425900554E4B4E4F574E0001
:103288004F56454E20434F4E54524F4C20763320D4
:1032980000000000416E6F6D616C792044657465B3
:1032A80063742020000000000000000000000000FF
:1032B80001020304060708090000000001020304D4
:1032C80002030405060708090A0B0C0D0E0F10105F
:1032D8000102000002030405060708090A0B0C0D89
:1032E8000E0F10100102232D302B2000686C4C00AB
:1032F80065666745464700303132333435363738EE
:10330800394142434445460030313233343536374B
:0C331800383961626364656600000000E3
:04332400310100086B
:043328000D0100088B
:10332C00FF00000019FCFFFF19FCFFFF00127A00E0
:10333C0010000000010000001C0000200000000034
:10334C000000000000000000000000000000000071
:10335C000000000000000000000000000000000061
:10336C000000000000000000000000000000000051
:10337C000000000000000000000000000000000041
:10338C000000000000000000000000000000000031
:0C339C0000000000000000000000000025
:0400000508000CF1F2
:00000001FF
