:020000040800F2
:1000000000280020110E0008490D00084F0D0008BF
:10001000550D00085B0D0008610D00080000000090
:10002000000000000000000000000000670D000854
:10003000730D0008000000007F0D00088B0D000804
:10004000590E0008590E0008590E0008590E0008F4
:10005000590E0008590E0008590E0008590E0008E4
:10006000590E0008590E0008590E0008590E0008D4
:10007000590E0008590E0008590E0008590E0008C4
:10008000590E0008590E0008590E0008590E0008B4
:10009000590E0008590E0008590E0008590E0008A4
:1000A000590E0008590E0008590E0008590E000894
:1000B000590E0008590E000800000000590E0008F3
:1000C000590E00080000000000000000590E000852
:1000D00000000000590E0008590E00080000000042
:1000E000590E0008590E0008590E000800000000C3
:1000F0000000000000000000000000000000000000
:0C01000000000000000000005FF808F1A3
:1001100010B5054C237833B9044B13B10448AFF341
:1001200000800123237010BD70000020000000003B
:10013000A830000808B5034B1BB103490348AFF3CF
:10014000008008BD0000000074000020A8300008F6
:1001500070B54FF0FF0C4CF4E06C1CEA11541DBF5D
:100160001CEA135594EA0C0F95EA0C0F00F0DEF828
:100170002C4481EA030621EA4C5123EA4C5350EA0D
:10018000013518BF52EA033541F4801143F480135E
:1001900038D0A0FB02CE4FF00005E1FB02E506F0EF
:1001A0000042E0FB03E54FF00006E1FB03569CF044
:1001B000000F18BF4EF0010EA4F1FF04B6F5007F4A
:1001C00064F5407404D25FEA4E0E6D4146EB0606BC
:1001D00042EAC62141EA55514FEAC52040EA5E5045
:1001E0004FEACE2EB4F1FD0C88BFBCF5E06F1ED8EF
:1001F000BEF1004F08BF5FEA500E50F1000041EB26
:10020000045170BD06F0004646EA010140EA0200D2
:1002100081EA0301B4EB5C04C2BFD4EB0C0541EAF4
:10022000045170BD41F480114FF0000E013C00F309
:10023000AB8014F1360FDEBF002001F0004170BD2D
:10024000C4F10004203C35DA0C341BDC04F1140446
:10025000C4F1200500FA05F320FA04F001FA05F2D2
:1002600040EA020001F0004221F0004110EBD3709F
:1002700021FA04F642EB06015EEA430E08BF20EACB
:10028000D37070BDC4F10C04C4F1200500FA04F36E
:1002900020FA05F001FA04F240EA020001F0004100
:1002A00010EBD37041F100015EEA430E08BF20EA73
:1002B000D37070BDC4F1200500FA05F24EEA020EBB
:1002C00020FA04F301FA05F243EA020321FA04F0EA
:1002D00001F0004121FA04F220EA020000EBD370A1
:1002E0005EEA430E08BF20EAD37070BD94F0000FA1
:1002F0000FD101F00046400041EB010111F4801FD5
:1003000008BF013CF7D041EA060195F0000F18BF85
:10031000704703F00046520043EB030313F4801FC1
:1003200008BF013DF7D043EA0603704794EA0C0F7B
:100330000CEA135518BF95EA0C0F0CD050EA410691
:1003400018BF52EA4306D1D181EA030101F000410E
:100350004FF0000070BD50EA410606BF1046194636
:1003600052EA430619D094EA0C0F02D150EA013642
:1003700013D195EA0C0F05D152EA03361CBF104683
:1003800019460AD181EA030101F0004141F0FE4122
:1003900041F470014FF0000070BD41F0FE4141F4A6
:1003A000780170BD81F0004102E000BF83F000439E
:1003B00030B54FEA41044FEA430594EA050F08BF00
:1003C00090EA020F1FBF54EA000C55EA020C7FEAC4
:1003D000645C7FEA655C00F0E2804FEA5454D4EB41
:1003E0005555B8BF6D420CDD2C4480EA020281EA0B
:1003F000030382EA000083EA010180EA020281EA43
:100400000303362D88BF30BD11F0004F4FEA013194
:100410004FF4801C4CEA113102D0404261EB4101A3
:1004200013F0004F4FEA03334CEA133302D0524229
:1004300063EB430394EA050F00F0A780A4F10104E5
:10044000D5F1200E0DDB02FA0EFC22FA05F280181F
:1004500041F1000103FA0EF2801843FA05F3594105
:100460000EE0A5F120050EF1200E012A03FA0EFC84
:1004700028BF4CF0020C43FA05F3C01851EBE371AE
:1004800001F0004507D54FF0000EDCF1000C7EEBCB
:1004900000006EEB0101B1F5801F1BD3B1F5001F09
:1004A0000CD349085FEA30004FEA3C0C04F1010428
:1004B0004FEA445212F5800F80F09A80BCF1004F51
:1004C00008BF5FEA500C50F1000041EB045141EAD3
:1004D000050130BD5FEA4C0C404141EB0101013C9C
:1004E00028BFB1F5801FE9D291F0000F04BF01468B
:1004F0000020B1FA81F308BF2033A3F10B03B3F15D
:1005000020020CDA0C3208DD02F1140CC2F10C02EC
:1005100001FA0CF021FA02F10CE002F11402D8BF4A
:10052000C2F1200C01FA02F120FA0CFCDCBF41EA16
:100530000C019040E41AA2BF01EB0451294330BDE5
:100540006FEA04041F3C1CDA0C340EDC04F11404C2
:10055000C4F1200220FA04F001FA02F340EA030099
:1005600021FA04F345EA030130BDC4F10C04C4F1DF
:10057000200220FA02F001FA04F340EA03002946BF
:1005800030BD21FA04F0294630BD94F0000F83F409
:10059000801306BF81F480110134013D4EE77FEAEC
:1005A000645C18BF7FEA655C29D094EA050F08BF38
:1005B00090EA020F05D054EA000C04BF1946104619
:1005C00030BD91EA030F1EBF0021002030BD5FEA5D
:1005D000545C05D14000494128BF41F0004130BD85
:1005E00014F580043CBF01F5801130BD01F00045D9
:1005F00045F0FE4141F470014FF0000030BD7FEA4C
:10060000645C1ABF194610467FEA655C1CBF0B4646
:10061000024650EA013406BF52EA033591EA030F5D
:1006200041F4002130BD00BF90F0000F04BF002155
:10063000704730B54FF4806404F132044FF0000588
:100640004FF0000150E700BF90F0000F04BF002101
:10065000704730B54FF4806404F1320410F0004567
:1006600048BF40424FF000013EE700BF42004FEA62
:10067000E2014FEA31014FEA02701FBF12F07F43DF
:1006800093F07F4F81F06051704732F07F4208BF96
:10069000704793F07F4F04BF41F40021704730B59D
:1006A0004FF4607401F0004521F000411CE700BFE9
:1006B00050EA010208BF704730B54FF000050AE06C
:1006C00050EA010208BF704730B511F0004502D56D
:1006D000404261EB41014FF4806404F132045FEA6F
:1006E000915C3FF4D8AE4FF003025FEADC0C18BF18
:1006F00003325FEADC0C18BF033202EBDC02C2F10A
:10070000200300FA03FC20FA02F001FA03FE40EA9B
:100710000E0021FA02F11444BDE600BF4FEA410287
:1007200012F5001215D211D56FF47873B3EB625243
:1007300012D94FEAC12343F0004343EA505311F06A
:10074000004F23FA02F018BF404270474FF00000FC
:10075000704750EA013005D111F0004008BF6FF03A
:10076000004070474FF00000704700BF80B500AFF9
:1007700001220221074801F0ADFA012000F0D0FB70
:1007800000220221034801F0A5FA012000F0C8FB75
:1007900000BF80BD000C014080B582B000AF0346B1
:1007A000FB71FB7903F00103DBB21A460421154803
:1007B00001F090FAFB795B08DBB203F00103DBB2D6
:1007C0001A4608210F4801F085FAFB799B08DBB235
:1007D00003F00103DBB21A4610210A4801F07AFA4D
:1007E000FB79DB08DBB203F00103DBB21A46202100
:1007F000044801F06FFAFFF7B9FF00BF0837BD46A4
:1008000080BD00BF000C014080B582B000AF034640
:10081000FB71002201210A4801F05CFAFB791B09F7
:10082000DBB21846FFF7B8FFFB7903F00F03DBB22A
:100830001846FFF7B1FF00BF0837BD4680BD00BFB7
:10084000000C014080B582B000AF0346FB7101226D
:1008500001210A4801F03EFAFB791B09DBB2184678
:10086000FFF79AFFFB7903F00F03DBB21846FFF79F
:1008700093FF00BF0837BD4680BD00BF000C01409C
:1008800080B500AF322000F04BFB0220FFF7BCFF29
:100890002820FFF7B9FF0C20FFF7B6FF0120FFF774
:1008A000B3FF022000F03CFB00BF80BD80B582B0EA
:1008B00000AF03460A46FB711346BB71FB79002B60
:1008C00001D1802200E0C022BB791344DBB218467C
:1008D000FFF79AFF00BF0837BD4680BD80B582B0E4
:1008E00000AF786006E07B685A1C7A601B78184677
:1008F000FFF7A8FF7B681B78002BF4D100BF00BF77
:100900000837BD4680BD000080B586B000AF786076
:1009100007F1080300221A605A609A607B68BB6086
:100920000123FB6002233B6107F1080319460B48D2
:1009300000F0DEFD094800F0EFFB6421074800F0FD
:10094000C5FC064800F0C8FD0346FB82034800F0E2
:1009500091FCFB8A18461837BD4680BD98000020E0
:1009600080B58CB000AF00F079FA00F0BDF800F06F
:1009700023F900F0FBF8544B9B69534A43F0010301
:100980009361514B9B6903F001037B607B684F4B84
:100990005B68FB62FB6A23F0E063FB62FB6A43F087
:1009A0000073FB62494AFB6A5360FFF769FF00214D
:1009B0000020FFF77BFF4648FFF790FF4FF47A7067
:1009C00000F0AEFA0120FFF71FFF0020FFF79CFFA9
:1009D00003467B850120FFF797FF03463B850220F6
:1009E000FFF792FF0346FB847B8D1846FFF72CFE32
:1009F00033A3D3E90023FFF7ABFB02460B461046B7
:100A00001946FFF78BFE03463B623B8DFA2202FB41
:100A100003F3304A82FB03121A44D212DB17D31AB3
:100A2000FB61FB8CC82B8CBF01230023DBB2BB61B5
:100A3000BB69002B18D001220221274801F04AF996
:100A40003A6AFB699A4205DA01220121224801F043
:100A500041F913E03A6AFB699A420FDD0022012155
:100A60001D4801F037F909E0002202211A4801F07F
:100A700031F900220121184801F02CF90021002051
:100A8000FFF714FF07F10800FB693A6A134901F008
:100A9000D1FE07F108031846FFF720FF00210120CF
:100AA000FFF704FFBB69002B03D00D48FFF716FFCB
:100AB00002E00C48FFF712FFC82000F031FA84E78B
:100AC0001973D712F241BF3F0010024000000140ED
:100AD000C03000088100088000100140D0300008BC
:100AE000E4300008F830000880B594B000AF07F19A
:100AF000280328220021184601F094FE07F1140370
:100B000000221A605A609A60DA601A613B1D002266
:100B10001A605A609A60DA600223BB620123BB63E9
:100B20001023FB6300237B6407F12803184601F0C0
:100B3000E9F80F237B610023BB610023FB610023E5
:100B40003B6200237B6207F114030021184601F089
:100B500059FB02237B600023FB603B1D184601F01C
:100B6000CBFC00BF5037BD4680BD000080B584B0CF
:100B700000AF3B1D00221A605A609A600C4B0D4A70
:100B80001A600B4B00229A60094B00221A73084B23
:100B90004FF46022DA61064B00225A60044B0122B6
:100BA0001A61034800F0E0F900BF1037BD4680BD70
:100BB000980000200024014080B588B000AF07F104
:100BC000100300221A605A609A60DA60244B9B6915
:100BD000234A43F004039361214B9B6903F0040310
:100BE000FB60FB681E4B9B691D4A43F00803936141
:100BF0001B4B9B6903F00803BB60BB68184B9B69E8
:100C0000174A43F010039361154B9B6903F01003DF
:100C10007B607B6800223F21124801F05BF80022D4
:100C20000721114801F056F83F233B6101237B6106
:100C30000223FB6107F1100319460A4800F0D0FEB9
:100C400007233B6101237B610223FB6107F1100352
:100C50001946054800F0C4FE00BF2037BD4680BDE0
:100C600000100240000C01400010014080B485B02B
:100C700000AF154B9B69144A43F001039361124B7B
:100C80009B6903F00103BB60BB680F4BDB690E4A35
:100C900043F08053D3610C4BDB6903F080537B60DE
:100CA0007B680A4B5B68FB60FB6823F0E063FB60DA
:100CB000FB6843F00073FB60044AFB68536000BFAD
:100CC0001437BD4680BC7047001002400000014050
:100CD00080B588B000AF786007F1100300221A6079
:100CE0005A609A60DA607B681B68144A934221D18B
:100CF000134B9B69124A43F400739361104B9B6939
:100D000003F40073FB60FB680D4B9B690C4A43F0D6
:100D1000040393610A4B9B6903F00403BB60BB6847
:100D200007233B6103237B6107F110031946054844
:100D300000F056FE00BF2037BD4680BD00240140B4
:100D4000001002400008014080B400AFFEE780B40C
:100D500000AFFEE780B400AFFEE780B400AFFEE76F
:100D600080B400AFFEE780B400AF00BFBD4680BCDA
:100D7000704780B400AF00BFBD4680BC704780B4F0
:100D800000AF00BFBD4680BC704780B500AF00F02B
:100D9000ABF800BF80BD000080B586B000AF7860C2
:100DA000144A154BD31A7B617B693B61134B1B685B
:100DB000002B02D1114B124A1A60104B1A687B6843
:100DC00013443A699A4207D201F002FD03460C220D
:100DD0001A604FF0FF3309E0084B1B68FB60074BBC
:100DE0001A687B681344054A1360FB681846183775
:100DF000BD4680BD00280020000400008C000020BB
:100E0000E000002080B400AF00BFBD4680BC70474A
:100E1000FFF7F8FF0B480C490C4A002302E0D458B6
:100E2000C4500433C4188C42F9D3094A094C002336
:100E300001E013600432A242FBD301F0CFFCFFF7C4
:100E40008FFD7047000000207000002088310008EE
:100E500070000020DC000020FEE7000080B500AF3D
:100E6000084B1B68074A43F010031360032000F08F
:100E700083FD0F2000F008F8FFF7F8FE0023184666
:100E800080BD00BF0020024080B582B000AF786016
:100E9000124B1A68124B1B7819464FF47A73B3FB46
:100EA000F1F3B2FBF3F3184600F08DFD0346002B7F
:100EB00001D001230EE07B680F2B0AD8002279684D
:100EC0004FF0FF3000F063FD064A7B68136000239B
:100ED00000E0012318460837BD4680BD0000002011
:100EE000080000200400002080B400AF054B1B78F0
:100EF0001A46054B1B681344034A136000BFBD46E6
:100F000080BC704708000020C800002080B400AFFB
:100F1000024B1B681846BD4680BC7047C8000020C5
:100F200080B584B000AF7860FFF7F0FFB8607B68F1
:100F3000FB60FB68B3F1FF3F05D00A4B1B781A46F4
:100F4000FB681344FB6000BFFFF7E0FF0246BB688D
:100F5000D31AFA689A42F7D800BF00BF1037BD46CF
:100F600080BD00BF0800002080B586B000AF78606B
:100F70000023FB7500233B610023BB600023FB6063
:100F80007B68002B01D10123BEE07B689B68002BAE
:100F90007B689B6A002B09D17B680022DA627B6840
:100FA000002283F824207868FFF792FE786800F02A
:100FB000F1FB0346FB757B689B6A03F01003002B73
:100FC00040F09980FB7D002B40F095807B689B6A08
:100FD00023F4885323F0020343F002027B689A62F1
:100FE0007B685A687B68DB691A437B681B7B5B0004
:100FF0001343BA681343BB607B689B68B3F5807F7B
:1010000003D07B689B68012B02D14FF4807300E012
:1010100000233A6913433B617B681B7D012B19D187
:101020007B681B7B002B09D17B689B69013B5A03C2
:101030003B69134343F400633B610BE07B689B6AAD
:1010400043F020027B689A627B68DB6A43F001020E
:101050007B68DA627B681B685B6823F469417B68A4
:101060001B683A690A435A607B681B689A68284B78
:1010700013407A681268B9680B4393607B689B6879
:10108000B3F5807F03D07B689B68012B04D17B681C
:101090001B69013B1B05FB607B681B68DB6A23F453
:1010A00070017B681B68FA680A43DA627B681B6818
:1010B0009A68184B1340BA689A420BD17B68002299
:1010C000DA627B689B6A23F0030343F001027B68CA
:1010D0009A6218E07B689B6A23F0120343F01002C7
:1010E0007B689A627B68DB6A43F001027B68DA62A4
:1010F0000123FB7507E07B689B6A43F010027B6865
:101100009A620123FB75FB7D18461837BD4680BDEA
:10111000FDF7E1FFFE0E1FFF80B584B000AF7860E1
:101120000023FB737B6893F82430012B01D1022349
:1011300098E07B68012283F82420786800F0D0FAD8
:101140000346FB73FB7B002B40F087807B689B6A28
:1011500023F4407323F0010343F480727B689A62A6
:101160007B681B68414A934205D1414B5B6803F49D
:101170007023002B15D17B689B6A23F480127B6857
:101180009A627B681B685B6803F48063002B26D03F
:101190007B689B6A23F4405343F480527B689A62D5
:1011A0001DE07B689B6A43F480127B689A627B68CF
:1011B0001B682F4A934204D07B681B682B4A9342DA
:1011C0000DD12B4B5B6803F48063002B07D07B6849
:1011D0009B6A23F4405343F480527B689A627B6895
:1011E0009B6A03F48053002B06D07B68DB6A23F0F4
:1011F00006027B68DA6202E07B680022DA627B68C2
:10120000002283F824207B681B686FF002021A60BA
:101210007B681B689B6803F46023B3F5602F13D1D0
:101220007B681B68114A934205D1114B5B6803F43C
:101230007023002B08D17B681B689A687B681B6849
:1012400042F4A0029A600CE07B681B689A687B6895
:101250001B6842F480129A6003E07B68002283F8E6
:101260002420FB7B18461037BD4680BD0028014076
:101270000024014080B584B000AF78600023FB7388
:101280007B6893F82430012B01D102231AE07B689C
:10129000012283F82420786800F07CFA0346FB736F
:1012A000FB7B002B09D17B689B6A23F4885323F0D6
:1012B000010343F001027B689A627B68002283F895
:1012C0002420FB7B18461037BD4680BD90B587B003
:1012D00000AF7860396000237B610023FB6000234E
:1012E0003B61FFF713FE78617B681B689B6803F422
:1012F0008073002B0BD07B689B6A43F020027B68D5
:101300009A627B68002283F824200123D3E07B6863
:101310001B685B6803F48073002B31D17B681B680A
:10132000DB6A03F47003002B2AD121E03B68B3F1A0
:10133000FF3F1DD03B68002B07D0FFF7E7FD0246BB
:101340007B69D31A3A689A4212D27B681B681B6881
:1013500003F00203002B0BD17B689B6A43F004026D
:101360007B689A627B68002283F824200323A2E032
:101370007B681B681B6803F00203002BD6D070E06B
:101380004F4B1C68022001F06DF90346B4FBF3F2E9
:101390007B681B6819694B4B0B40002B18D17B688D
:1013A0001B68D968484B0B40002B11D17B681B6828
:1013B0001969464B0B40002B08D17B681B68D96824
:1013C000434B0B40002B01D1142320E029231EE0C6
:1013D0007B681B6819693D4B0B40002B06D17B686D
:1013E0001B68D9683A4B0B40002B0DD07B681B68FB
:1013F0001969384B0B40002B08D17B681B68D968F2
:10140000344B0B40002B01D1542300E0FC2302FBA2
:1014100003F33B6121E03B68B3F1FF3F1AD03B6827
:10142000002B07D0FFF772FD02467B69D31A3A689A
:101430009A420FD2FB683A699A420BD97B689B6A41
:1014400043F004027B689A627B68002283F82420C0
:10145000032330E0FB680133FB60FB683A699A4282
:10146000D9D87B681B686FF012021A607B689B6A90
:1014700043F400727B689A627B681B689B6803F484
:101480006023B3F5602F15D17B681B7B002B11D136
:101490007B689B6A23F480727B689A627B689B6A94
:1014A00003F48053002B05D17B689B6A43F0010253
:1014B0007B689A62002318461C37BD4690BD00BF6A
:1014C00000000020244992242449920092244912C9
:1014D000922449004992240080B483B000AF786020
:1014E0007B681B68DB6C18460C37BD4680BC7047B8
:1014F00080B485B000AF786039600023FB730023AF
:10150000BB607B6893F82430012B01D10223DCE01F
:101510007B68012283F824203B685B68062B1CD87B
:101520007B681B68596B3B685A6813469B001344E1
:10153000053B1F2202FA03F3DB4319403B6818689E
:101540003B685A6813469B001344053B00FA03F2BC
:101550007B681B680A435A633CE03B685B680C2B62
:101560001CD87B681B68196B3B685A6813469B0044
:101570001344233B1F2202FA03F3DB4319403B6869
:1015800018683B685A6813469B001344233B00FAD3
:1015900003F27B681B680A431A631BE07B681B68C5
:1015A000D96A3B685A6813469B001344413B1F228B
:1015B00002FA03F3DB4319403B6818683B685A683A
:1015C00013469B001344413B00FA03F27B681B68FF
:1015D0000A43DA623B681B68092B1CD97B681B68CD
:1015E000D9683B681A6813465B0013441E3B072208
:1015F00002FA03F3DB4319403B6898683B681A68BA
:1016000013465B0013441E3B00FA03F27B681B6821
:101610000A43DA6019E07B681B6819693B681A683D
:1016200013465B001344072202FA03F3DB4319401D
:101630003B6898683B681A6813465B00134400FADD
:1016400003F27B681B680A431A613B681B68102B16
:1016500003D03B681B68112B32D17B681B681D4A85
:10166000934225D17B681B689B6803F40003002B21
:1016700026D17B681B689A687B681B6842F400026D
:101680009A603B681B68102B1AD1134B1B68134AD6
:10169000A2FB03239A0C13469B0013445B00BB6020
:1016A00002E0BB68013BBB60BB68002BF9D107E0DF
:1016B0007B689B6A43F020027B689A620123FB737C
:1016C0007B68002283F82420FB7B18461437BD4634
:1016D00080BC7047002401400000002083DE1B43D3
:1016E00080B584B000AF78600023FB600023BB604E
:1016F0007B681B689B6803F00103012B40D07B686B
:101700001B689A687B681B6842F001029A601F4B55
:101710001B681F4AA2FB03239B0CBB6002E0BB6853
:10172000013BBB60BB68002BF9D1FFF7EFFBF86012
:101730001FE0FFF7EBFB0246FB68D31A022B18D918
:101740007B681B689B6803F00103012B11D07B6849
:101750009B6A43F010027B689A627B68DB6A43F005
:1017600001027B68DA627B68002283F8242001236F
:1017700007E07B681B689B6803F00103012BD8D14D
:10178000002318461037BD4680BD00BF0000002072
:1017900083DE1B4380B584B000AF78600023FB601C
:1017A0007B681B689B6803F00103012B2ED17B68CB
:1017B0001B689A687B681B6822F001029A60FFF739
:1017C000A5FBF8601BE0FFF7A1FB0246FB68D31AFC
:1017D000022B14D97B681B689B6803F00103012B63
:1017E0000DD17B689B6A43F010027B689A627B682C
:1017F000DB6A43F001027B68DA62012307E07B6861
:101800001B689B6803F00103012BDCD00023184602
:101810001037BD4680BD000080B485B000AF786051
:101820007B6803F00703FB600C4BDB68BB60BA68A6
:101830004FF6FF031340BB60FB681A02BB681343FB
:1018400043F0BF6343F40033BB60044ABB68D3601A
:1018500000BF1437BD4680BC704700BF00ED00E0FC
:1018600080B400AF044BDB681B0A03F00703184683
:10187000BD4680BC704700BF00ED00E080B483B07F
:1018800000AF03463960FB7197F90730002B0ADB84
:101890003B68DAB20C4997F907301201D2B20B4417
:1018A00083F800230AE03B68DAB20849FB7903F0C9
:1018B0000F03043B1201D2B20B441A7600BF0C375F
:1018C000BD4680BC704700BF00E100E000ED00E0D5
:1018D00080B489B000AFF860B9607A60FB6803F04B
:1018E0000703FB61FB69C3F10703042B28BF042333
:1018F000BB61FB690433062B02D9FB69033B00E0A3
:1019000000237B614FF0FF32BB6902FA03F3DA4335
:10191000BB681A407B699A404FF0FF317B6901FA3E
:1019200003F3D9437B680B40134318462437BD4665
:1019300080BC704780B582B000AF78607B68013BA7
:10194000B3F1807F01D301230FE00A4A7B68013B9A
:1019500053600F214FF0FF30FFF790FF054B00223F
:101960009A60044B07221A60002318460837BD46C8
:1019700080BD00BF10E000E080B582B000AF7860AD
:101980007868FFF749FF00BF0837BD4680BD80B5C6
:1019900086B000AF0346B9607A60FB7300237B61B9
:1019A000FFF75EFF78617A68B9687869FFF790FFA2
:1019B000024697F90F3011461846FFF75FFF00BF48
:1019C0001837BD4680BD80B582B000AF78607868BA
:1019D000FFF7B0FF034618460837BD4680BD00003C
:1019E00080B48BB000AF7860396000237B62002345
:1019F0003B6248E101227B6A02FA03F3FB613B6828
:101A00001B68FA691340BB61BA69FB699A4240F0EE
:101A100037813B685B68A34A93425ED0A14A9342F8
:101A200075D8A14A934258D09F4A93426FD89F4A93
:101A3000934252D09D4A934269D89D4A93424CD0DA
:101A40009B4A934263D89B4A934246D0994A934219
:101A50005DD8122B2AD8122B59D801A252F823F0A4
:101A6000DB1A0008B51A0008C71A0008091B00088D
:101A70000F1B00080F1B00080F1B00080F1B00089E
:101A80000F1B00080F1B00080F1B00080F1B00088E
:101A90000F1B00080F1B00080F1B00080F1B00087E
:101AA0000F1B0008BD1A0008D11A0008824A934291
:101AB00013D02CE03B68DB683B6229E03B68DB68C5
:101AC00004333B6224E03B68DB6808333B621FE081
:101AD0003B68DB680C333B621AE03B689B68002B79
:101AE00002D104233B6213E03B689B68012B05D1C4
:101AF00008233B627B68FA691A6109E008233B62AC
:101B00007B68FA695A6103E000233B6200E000BF92
:101B1000BB69FF2B01D87B6801E07B6804337B61E4
:101B2000BB69FF2B02D87B6A9B0002E07B6A083B03
:101B30009B003B617B691A680F213B6901FA03F343
:101B4000DB431A40396A3B6901FA03F31A437B69A4
:101B50001A603B685B6803F08053002B00F09080B4
:101B6000564B9B69554A43F001039361534B9B6964
:101B700003F00103BB60BB68514A7B6A9B080233D8
:101B800052F82330FB607B6A03F003039B000F22B3
:101B900002FA03F3DB43FA681340FB607B68494AAF
:101BA00093420DD07B68484A934207D07B68474AEE
:101BB000934201D1022304E0032302E0012300E069
:101BC00000237A6A02F0030292009340FA681343FA
:101BD000FB603B497B6A9B080233FA6841F823208B
:101BE0003B685B6803F48013002B06D0384B9A687F
:101BF0003749BB6913438B6006E0354B9A68BB6974
:101C0000DB43334913408B603B685B6803F400138C
:101C1000002B06D02E4BDA682D49BB691343CB60ED
:101C200006E02B4BDA68BB69DB4329491340CB60E4
:101C30003B685B6803F40033002B06D0244B5A68E2
:101C40002349BB6913434B6006E0214B5A68BB69CB
:101C5000DB431F4913404B603B685B6803F48033F0
:101C6000002B06D01A4B1A681949BB6913430B6045
:101C700006E0174B1A68BB69DB43154913400B603C
:101C80007B6A01337B623B681A687B6A22FA03F342
:101C9000002B7FF4AFAE00BF00BF2C37BD4680BC29
:101CA000704700BF00003210000031100000221009
:101CB000000021100000121000001110001002405E
:101CC0000000014000080140000C014000100140EC
:101CD0000004014080B483B000AF78600B467B8085
:101CE00013467B707B78002B03D07A887B681A615F
:101CF00003E07B881A047B681A6100BF0C37BD467D
:101D000080BC704780B586B000AF78607B68002BE0
:101D100001D101236CE27B681B6803F00103002BF7
:101D200000F08780924B5B6803F00C03042B0CD00F
:101D30008F4B5B6803F00C03082B12D18C4B5B6854
:101D400003F48033B3F5803F0BD1894B1B6803F458
:101D50000033002B6CD07B685B68002B68D10123BB
:101D600046E27B685B68B3F5803F06D1804B1B6819
:101D70007F4A43F4803313602EE07B685B68002B5E
:101D80000CD17B4B1B687A4A23F480331360784B69
:101D90001B68774A23F4802313601DE07B685B682F
:101DA000B3F5A02F0CD1724B1B68714A43F480230A
:101DB00013606F4B1B686E4A43F4803313600BE073
:101DC0006B4B1B686A4A23F480331360684B1B68B3
:101DD000674A23F4802313607B685B68002B13D071
:101DE000FFF794F8386108E0FFF790F802463B6986
:101DF000D31A642B01D90323FAE15D4B1B6803F46A
:101E00000033002BF0D014E0FFF780F8386108E0D1
:101E1000FFF77CF802463B69D31A642B01D90323F0
:101E2000E6E1534B1B6803F40033002BF0D100E0D4
:101E300000BF7B681B6803F00203002B63D04C4B90
:101E40005B6803F00C03002B0BD0494B5B6803F07D
:101E50000C03082B1CD1464B5B6803F48033002B2A
:101E600016D1434B1B6803F00203002B05D07B689F
:101E70001B69012B01D00123BAE13D4B1B6823F004
:101E8000F8027B685B69DB00394913430B603AE079
:101E90007B681B69002B20D0364B01221A60FFF7AC
:101EA00035F8386108E0FFF731F802463B69D31A8C
:101EB000022B01D903239BE12D4B1B6803F0020386
:101EC000002BF0D02A4B1B6823F0F8027B685B697B
:101ED000DB00274913430B6015E0264B00221A60F4
:101EE000FFF714F8386108E0FFF710F802463B6985
:101EF000D31A022B01D903237AE11D4B1B6803F08F
:101F00000203002BF0D17B681B6803F00803002B51
:101F10003AD07B689B69002B19D0174B01221A60BD
:101F2000FEF7F4FF386108E0FEF7F0FF02463B6978
:101F3000D31A022B01D903235AE10D4B5B6A03F03C
:101F40000203002BF0D0012000F0B8FA1CE00A4B8D
:101F500000221A60FEF7DAFF38610FE0FEF7D6FFC5
:101F600002463B69D31A022B08D9032340E100BF84
:101F70000010024000004242800442429E4B5B6AD5
:101F800003F00203002BE9D17B681B6803F0040314
:101F9000002B00F0A6800023FB75974BDB6903F054
:101FA0008053002B0DD1944BDB69934A43F080534F
:101FB000D361914BDB6903F08053BB60BB680123A5
:101FC000FB758E4B1B6803F48073002B18D18B4B71
:101FD0001B688A4A43F480731360FEF797FF3861E9
:101FE00008E0FEF793FF02463B69D31A642B01D940
:101FF0000323FDE0814B1B6803F48073002BF0D0BA
:102000007B68DB68012B06D17B4B1B6A7A4A43F065
:10201000010313622DE07B68DB68002B0CD1764B4B
:102020001B6A754A23F001031362734B1B6A724AE1
:1020300023F0040313621CE07B68DB68052B0CD1E2
:102040006D4B1B6A6C4A43F0040313626A4B1B6AB4
:10205000694A43F0010313620BE0674B1B6A664A4F
:1020600023F001031362644B1B6A634A23F00403E9
:1020700013627B68DB68002B15D0FEF747FF3861E1
:102080000AE0FEF743FF02463B69D31A41F2883269
:10209000934201D90323ABE0574B1B6A03F00203C1
:1020A000002BEED014E0FEF731FF38610AE0FEF7B6
:1020B0002DFF02463B69D31A41F28832934201D97F
:1020C000032395E04C4B1B6A03F00203002BEED177
:1020D000FB7D012B05D1484BDB69474A23F0805338
:1020E000D3617B68DB69002B00F08180424B5B6829
:1020F00003F00C03082B61D07B68DB69022B46D10F
:102100003F4B00221A60FEF701FF386108E0FEF73E
:10211000FDFE02463B69D31A022B01D9032367E077
:10212000354B1B6803F00073002BF0D17B681B6AF2
:10213000B3F5803F08D1304B5B6823F400327B68F5
:102140009B682D4913434B602B4B5B6823F474123F
:102150007B68196A7B685B6A0B43274913434B60B2
:10216000274B01221A60FEF7D1FE386108E0FEF726
:10217000CDFE02463B69D31A022B01D9032337E077
:102180001D4B1B6803F00073002BF0D02FE01C4B9D
:1021900000221A60FEF7BAFE386108E0FEF7B6FECC
:1021A00002463B69D31A022B01D9032320E0124BCC
:1021B0001B6803F00073002BF0D118E07B68DB692B
:1021C000012B01D1012313E00B4B5B68FB60FB6823
:1021D00003F480327B681B6A9A4206D1FB6803F4E1
:1021E00070127B685B6A9A4201D0012300E00023F1
:1021F00018461837BD4680BD0010024000700040F0
:102200006000424280B584B000AF786039607B687E
:10221000002B01D10123D0E06A4B1B6803F00703B8
:102220003A689A4210D9674B1B6823F00702654948
:102230003B6813430B60634B1B6803F007033A686A
:102240009A4201D00123B8E07B681B6803F00203C7
:10225000002B20D07B681B6803F00403002B05D003
:10226000594B5B68584A43F4E06353607B681B68D2
:1022700003F00803002B05D0534B5B68524A43F42C
:1022800060535360504B5B6823F0F0027B689B689F
:102290004D4913434B607B681B6803F00103002B1F
:1022A00040D07B685B68012B07D1474B1B6803F468
:1022B0000033002B15D101237FE07B685B68022B84
:1022C00007D1414B1B6803F00073002B09D1012398
:1022D00073E03D4B1B6803F00203002B01D1012387
:1022E0006BE0394B5B6823F003027B685B6836491F
:1022F00013434B60FEF70AFEF8600AE0FEF706FEA5
:102300000246FB68D31A41F28832934201D9032373
:1023100053E02D4B5B6803F00C027B685B689B000D
:102320009A42EBD1274B1B6803F007033A689A42A5
:1023300010D2244B1B6823F0070222493B68134349
:102340000B60204B1B6803F007033A689A4201D0E8
:10235000012332E07B681B6803F00403002B08D0E4
:10236000194B5B6823F4E0627B68DB681649134312
:102370004B607B681B6803F00803002B09D0124BED
:102380005B6823F460527B681B69DB000E491343D2
:102390004B6000F021F802460B4B5B681B0903F011
:1023A0000F030A49CB5C22FA03F3094A1360094B75
:1023B0001B681846FEF768FD002318461037BD4617
:1023C00080BD00BF00200240001002400C31000818
:1023D000000000200400002080B487B000AF00237C
:1023E000FB600023BB6000237B6100237B60002334
:1023F0003B611E4B5B68FB60FB6803F00C03042B26
:1024000002D0082B03D027E0194B3B6127E0FB6883
:102410009B0C03F00F03174AD35C7B60FB6803F44B
:102420008033002B10D0114B5B685B0C03F0010371
:10243000114AD35CBB607B680D4A02FB03F2BB68A8
:10244000B2FBF3F37B6104E07B680C4A02FB03F30D
:102450007B617B693B6102E0054B3B6100BF3B69EF
:1024600018461C37BD4680BC704700BF00100240B4
:1024700000127A00243100083431000800093D00C0
:1024800080B400AF024B1B681846BD4680BC704745
:102490000000002080B500AFFFF7F2FF0246054BB9
:1024A0005B68DB0A03F007030349CB5C22FA03F302
:1024B000184680BD001002401C31000880B485B071
:1024C00000AF78600A4B1B680A4AA2FB03235B0A31
:1024D0007A6802FB03F3FB6000BFFB685A1EFA60D8
:1024E000002BF9D100BF00BF1437BD4680BC704738
:1024F00000000020D34D621080B586B000AF786038
:1025000000233B610023FB607B681B6803F0010331
:10251000002B7DD00023FB754F4BDB6903F080530C
:10252000002B0DD14C4BDB694B4A43F08053D361F8
:10253000494BDB6903F08053BB60BB680123FB752B
:10254000464B1B6803F48073002B18D1434B1B6868
:10255000424A43F480731360FEF7D8FC386108E008
:10256000FEF7D4FC02463B69D31A642B01D903233E
:102570006DE03A4B1B6803F48073002BF0D0364BB0
:102580001B6A03F44073FB60FB68002B2ED07B6852
:102590005B6803F44073FA689A4227D02E4B1B6A9B
:1025A00023F44073FB602E4B01221A602C4B002257
:1025B0001A60294AFB681362FB6803F00103002BD1
:1025C00014D0FEF7A3FC38610AE0FEF79FFC024638
:1025D0003B69D31A41F28832934201D9032336E092
:1025E0001D4B1B6A03F00203002BEED01A4B1B6A33
:1025F00023F440727B685B68174913430B62FB7DD1
:10260000012B05D1144BDB69134A23F08053D361AE
:102610007B681B6803F00203002B08D00E4B5B683D
:1026200023F440427B689B680B4913434B607B68F3
:102630001B6803F01003002B08D0074B5B6823F4E2
:1026400080027B68DB68044913434B600023184613
:102650001837BD4680BD00BF00100240007000402A
:102660004004424280B588B000AF786000237B61AF
:102670000023FB6100233B610023FB600023BB615F
:102680007B68102B0AD07B68102B00F28A807B6855
:10269000012B45D07B68022B75D082E0464B5B68EE
:1026A000FB60454B1B6803F08073002B7BD0FB68FD
:1026B0009B0C03F00F03414AD35C3B61FB6803F4BE
:1026C0008033002B15D03C4B5B685B0C03F001039F
:1026D0003B4AD35C7B61FB6803F48033002B0DD055
:1026E000384A7B69B2FBF3F23B6902FB03F3FB61FF
:1026F00004E03B69344A02FB03F3FB612E4B5B6849
:1027000003F48003B3F5800F02D1FB69BB614AE09B
:10271000FB695B002D4AA2FB03235B08BB6142E01F
:10272000254B1B6AFB60FB6803F44073B3F5807FA5
:1027300008D1FB6803F00203002B03D04FF40043E1
:10274000BB611FE0FB6803F44073B3F5007F09D160
:10275000194B5B6A03F00203002B03D049F6404398
:10276000BB610FE0FB6803F44073B3F5407F1CD1FD
:10277000114B1B6803F40033002B16D04FF2244397
:10278000BB6112E011E0FFF785FE02460A4B5B6871
:102790009B0B03F0030301335B00B2FBF3F3BB615C
:1027A00004E000BF02E000BF00E000BFBB691846C4
:1027B0002037BD4680BD00BF001002403831000800
:1027C0004831000800127A0000093D00ABAAAAAA0D
:1027D000014B1868704700BF0C00002070B5002640
:1027E0000C4D0D4C641BA410A64209D100F05CFCFA
:1027F00000260A4D0A4C641BA410A64205D170BDE8
:1028000055F8043B98470136EEE755F8043B9847E6
:102810000136F2E78031000880310008803100087D
:102820008431000803460244934200D1704703F804
:10283000011BF9E70EB46FF0004100B59CB01DAB71
:1028400002900690079104910848094953F8042B17
:102850000591006802A9019300F068F80022029B2C
:102860001A701CB05DF804EB03B070470C00002038
:102870000802FFFF2DE9F0478E6882469E420C4613
:1028800090461F4638D88A8912F4906F32D0256856
:1028900009690133A5EB010965694B4405EB450561
:1028A00005EBD5756D109D4238BF1D46530531D5DA
:1028B000294600F053FB064650B90C234FF0FF3079
:1028C000CAF80030A38943F04003A381BDE8F08734
:1028D0004A46216900F0CEFAA38923F4906343F0BD
:1028E0008003A38126614E4426603E466561A5EBC8
:1028F0000905A560BE4200D93E46324641462068E1
:1029000000F0C6FAA36822689B1B32440020A36033
:102910002260DBE72A4600F07BFB06460028E1D177
:102920005046216900F0CEFAC7E700002DE9F04FCC
:1029300098468B8907461B060D4614469DB00ED55A
:102940000B6963B9402100F009FB2860286120B9B8
:102950000C233B604FF0FF30D1E040236B6100233C
:10296000099320238DF8293030234FF00109CDF849
:102970000C80DFF8A4818DF82A3023469A4613F89C
:10298000012B0AB1252AF9D1BAEB040B0BD05B4617
:10299000224629463846FFF76DFF013000F0AA8035
:1029A000099A5A4409929AF80030002B00F0A2804C
:1029B00000234FF0FF32CDE905230AF1010A049309
:1029C00007938DF853301A935446052214F8011BCF
:1029D000514800F041FA049AD8B9D00644BF2023E8
:1029E0008DF85330110744BF2B238DF853309AF8DC
:1029F00000302A2B15D0544600204FF00A0C079ABD
:102A0000214611F8013B303B092B4ED9B0B107925A
:102A100014E0A0EB080309FA03F31343A24604935E
:102A2000D2E7039B191D1B680391002BBBBF5B42C0
:102A300042F0020207930793B8BF049223782E2B2B
:102A40000CD163782A2B35D1039B02341A1D1B68E5
:102A50000392002BB8BF4FF0FF330593DFF8C8A0F7
:102A600003225046217800F0F7F940B14023A0EB53
:102A70000A0003FA00F0049B01340343049314F8A2
:102A8000011B062225488DF8281000F0E5F90028E2
:102A900038D0234B1BBB039B073323F007030833BA
:102AA0000393099B3344099367E70C4601200CFB11
:102AB0000232A5E700234FF00A0C194601340593B2
:102AC000204610F8012B303A092A03D9002BC5D033
:102AD0000591C3E7044601230CFB0121F0E703AB9A
:102AE00000932A4638460F4B04A9AFF30080421CDE
:102AF0000646D6D1AB895B063FF52CAF09981DB0D1
:102B0000BDE8F08F03AB00932A463846054B04A975
:102B100000F07CF8EBE700BF4A31000854310008B0
:102B20000000000075280008503100082DE9F0472A
:102B3000164699468A680B6907469342B8BF134602
:102B4000336091F843200C46DDF820800AB1013350
:102B500033602368990642BF3368023333602568C7
:102B600015F0060506D104F1190AE36832689B1ACC
:102B7000AB4228DC94F84320131E226818BF0123BF
:102B800092062DD44946384604F14302C04701302D
:102B900020D02368E56803F00603042B18BF002546
:102BA00032684FF00006A36808BFAD1A226908BF5B
:102BB00025EAE5759342C4BF9B1AED181A34B54255
:102BC0001AD1002008E00123524649463846C04742
:102BD000013003D14FF0FF30BDE8F0870135C4E785
:102BE0003020E11881F843005A1C94F84510224423
:102BF000023382F84310C5E701232246494638468E
:102C0000C0470130E6D00136D9E700002DE9FF4783
:102C10000C46277E9146782F80469A460C9904F1FF
:102C2000430207D8622F0AD8002F00F0D980582F0E
:102C300000F0A48004F1420684F842703AE0A7F163
:102C40006303152BF6D801A050F823F0A52C00083B
:102C5000B92C0008352C0008352C0008352C00084C
:102C6000352C0008B92C0008352C0008352C00083C
:102C7000352C0008352C0008C72D0008E92C000869
:102C8000A92D0008352C0008352C0008E92D000876
:102C9000352C0008E92C0008352C0008352C0008DC
:102CA000B12D00080B6804F142061A1D1B680A606A
:102CB00084F842300123A4E0256808682E0600F15C
:102CC00004030AD505680B60002D03DA2D236D423D
:102CD00084F843300A235E4819E015F0400F056878
:102CE0000B6018BF2DB2EFE70B682568181D086050
:102CF000280601D51D6802E06906FBD51D886F2FE7
:102D00000CBF08230A235248002184F84310666848
:102D1000002EA8BF2168A660A4BF21F00401216095
:102D20000DB9002E4DD01646B5FBF3F103FB11573C
:102D3000C75D06F8017D2F46BB420D46F4D9082B2E
:102D40000BD12368DF0708D5236961689942DEBF8C
:102D5000302306F8013C06F1FF36921B22614B46F8
:102D600021464046CDF800A003AAFFF7DFFE013060
:102D70004CD14FF0FF3004B0BDE8F087344884F800
:102D800045700E68236856F8045B1F060E6014D564
:102D9000D90744BF43F0200323601DB9236823F003
:102DA000200323601023AFE7236843F02003236050
:102DB0007823284884F84530E3E75E0648BFADB283
:102DC000E6E71646BBE70B6826681D1D60690D60C7
:102DD00035061B6801D5186002E07106FBD5188026
:102DE000002316462361BAE70B681A1D0A601E68A5
:102DF00000213046626800F02FF808B1801B606047
:102E000063682361002384F84330A8E732464946CB
:102E100040462369D0470130ABD023689B0713D4C9
:102E2000E068039B9842B8BF1846A4E701233246E6
:102E300049464046D04701309BD00135E3680399AD
:102E40005B1AAB42F2DCEBE7002504F11906F5E76B
:102E50005B3100086C310008034610B5C9B202446A
:102E60009342184601D1002003E0047801338C42DC
:102E7000F6D110BD0A44914200F1FF3300D17047F2
:102E800010B511F8014B914203F8014FF9D110BD73
:102E9000884210B501EB020402D98442234607D8C8
:102EA000431EA14208D011F8012B03F8012FF8E7C7
:102EB000014602448A4200D110BD13F8014D02F8C8
:102EC000014DF7E738B50546002943D051F8043CD9
:102ED0000C1F002BB8BFE41800F0D0F81E4A13688E
:102EE000104633B9636014602846BDE8384000F0EE
:102EF000CBB8A3420AD921686218934201BF1A686D
:102F00005B685218226063600460EDE71A465B68F4
:102F10000BB1A342FAD911685018A0420BD1206816
:102F20000144501883421160DED118685B68014487
:102F300011605360D8E702D90C232B60D4E72068D6
:102F400021188B4201BF19685B6809182160636012
:102F50005460C9E738BD00BF90000020F8B5CD1C13
:102F600025F0030508350C2D38BF0C25002D06462D
:102F700001DBA94203D90C2333600020F8BD00F027
:102F80007DF821490A6814469CB9204F3B6823B953
:102F90002146304600F062F838602946304600F09D
:102FA0005DF8431C23D10C233046336000F06CF8ED
:102FB000E3E723685B1B17D40B2B03D923601C4466
:102FC000256004E06368A2420CBF0B60536030468A
:102FD00000F05AF804F10B00231D20F00700C21A7C
:102FE000CCD01B1AA350C9E722466468CCE7C41CA6
:102FF00024F00304A042E3D0211A304600F02EF85A
:103000000130DDD1CFE700BF900000209400002008
:10301000F8B5074614460E4621B91146BDE8F840FA
:10302000FFF79CBF22B9FFF74DFF25462846F8BDA4
:1030300000F030F8A0420FD221463846FFF78EFF4D
:1030400005460028F2D031462246FFF713FF3146ED
:103050003846FFF737FFE9E73546E7E738B500239D
:10306000054D044608462B60FDF796FE431C02D131
:103070002B6803B1236038BDCC000020014800F06C
:1030800011B800BFD4000020014800F00CB800BF08
:10309000D400002051F8043C181F002BBCBF0B5873
:1030A000C018704770477047F8B500BFF8BC08BC3F
:1030B0009E467047F8B500BFF8BC08BC9E467047F6
:1030C00053595354454D20424F4F542E2E2E00003D
:1030D00054656D703A25336443205365743A253343
:1030E000644300005374617475733A204F4E20207E
:1030F00020202020000000005374617475733A2072
:103100004F46462020202020000000000000000044
:103110000000000001020304060708090000000087
:103120000102030402030405060708090A0B0C0D3B
:103130000E0F101001020000020304050607080923
:103140000A0B0C0D0E0F10100102232D302B200046
:10315000686C4C0065666745464700303132333451
:1031600035363738394142434445460030313233F1
:1031700034353637383961626364656600000000B3
:04318000350100080D
:04318400110100082D
:1031880000127A001000000001000000100000206A
:103198000000000000000000000000000000000027
:1031A8000000000000000000000000000000000017
:1031B8000000000000000000000000000000000007
:1031C80000000000000000000000000000000000F7
:1031D80000000000000000000000000000000000E7
:1031E80000000000000000000000000000000000D7
:0400000508000E11D0
:00000001FF
